:100000000C9434000C9453000C9471000C94510027
:100010000C9451000C9451000C9451000C9451001C
:100020000C9451000C9451000C9451000C9451000C
:100030000C9451000C9451000C9451000C945100FC
:100040000C9451000C9451000C9451000C945100EC
:100050000C9451000C9451000C9451000C945100DC
:100060000C9451000C94510011241FBECFEFD8E026
:10007000DEBFCDBF11E0A0E0B1E0EEE8F1E002C0EC
:1000800005900D92A230B107D9F721E0A2E0B1E0CE
:1000900001C01D92A330B207E1F70E948F000C94BB
:1000A000C5000C9400001F920F920FB60F921124FE
:1000B0008F939F9380910201882339F090910001E2
:1000C00081E089278093000105C081E080930001D1
:1000D000809302019F918F910F900FBE0F901F9000
:1000E00018951F920F920FB60F9211248F939F9322
:1000F00080910201811107C09091000181E0892760
:100100008093000105C081E08093000110920201FC
:100110009F918F910F900FBE0F901F901895F8949C
:100120008FEF84B915B81AB88BB9E9E6F0E0808191
:100130008A6080838DB383608DBB789422E091E0E8
:1001400080910201882361F080910001882329F0C9
:10015000299885B1892785B90EC02998289A0BC09E
:1001600080910001882329F0289885B1822785B9DC
:1001700002C02898299A3FEF43EC89E03150404073
:0E0180008040E1F700C00000DBCFF894FFCF15
:02018E0001006E
:00000001FF
