S00F0000636F756E7465722E7372656315
S11300000C9434000C9451000C9451000C947A001C
S11300100C9451000C9451000C9451000C94510018
S11300200C9451000C9451000C9451000C94510008
S11300300C9451000C9451000C9451000C945100F8
S11300400C9451000C9451000C9451000C945100E8
S11300500C9451000C9451000C9451000C945100D8
S11300600C9451000C94510011241FBECFEFD8E022
S1130070DEBFCDBF11E0A0E0B1E0E2E8F2E002C0F3
S113008005900D92A431B107D9F721E0A4E1B1E0C4
S113009001C01D92A831B207E1F70E94E5000C945B
S11300A03F010C940000F8948FEF8AB981E084B981
S11300B085B1866085B9E8E6F0E08081816080835F
S11300C0EBE6F0E080818660808378940895672B66
S11300D011F4289801C0289A880F991FFC01E05058
S11300E0FF4F80818BB98FE39CE90197F1F700C042
S11300F0000008951F920F920FB60F9211248F9350
S11301009F93AF93BF9319992CC080911401909140
S11301101501A0911601B0911701892B8A2B8B2B05
S113012069F483E690E0A0E0B0E08093140190933A
S11301301501A0931601B093170113C08091140107
S113014090911501A0911601B09117010197A10991
S1130150B1098093140190931501A0931601B093F3
S113016017011A9929C08091140190911501A09149
S11301701601B091170183369105A105B10549F423
S11301801092140110921501109216011092170189
S113019013C08091140190911501A0911601B091A2
S11301A017010196A11DB11D8093140190931501AF
S11301B0A0931601B0931701BF91AF919F918F91B6
S11301C00F900FBE0F901F9018950E9453000F2E92
S11301D0FAE04F2E512C612C712CF02D60911401FA
S11301E0709115018091160190911701A30192015C
S11301F00E941D016B017C018090140190901501F7
S1130200A0901601B090170160E070E0C6010E9452
S113021067000D2C000CEE08FF08C501B4016C1931
S11302207D098E099F09A30192010E941D0161E0CD
S113023070E0C9010E946700D1CFA1E21A2EAA1B67
S1130240BB1BFD010DC0AA1FBB1FEE1FFF1FA21782
S1130250B307E407F50720F0A21BB30BE40BF50B7F
S1130260661F771F881F991F1A9469F76095709508
S1130270809590959B01AC01BD01CF010895F89440
S1050280FFCFAA
S113028240007900240030001900120002007800B6
S10702920000100054
S9030000FC
