:100000000C9434000C943E000C943E000C943E0082
:100010000C943E000C943E000C943E000C943E0068
:100020000C943E000C943E000C943E000C943E0058
:100030000C943E000C943E000C943E000C943E0048
:100040000C943E000C943E000C943E000C943E0038
:100050000C943E000C943E000C943E000C943E0028
:100060000C943E000C943E0011241FBECFEFD8E04C
:10007000DEBFCDBF0E9440000C947B000C940000BA
:1000800017B88FEF88B98AB91BB880E091E021E0FA
:1000900042E030E0309904C0882361F0922708C024
:1000A000319904C0811113C092270FC0882369F0D1
:1000B000992339F059988BB182278BB9822F91E01F
:1000C00010C05998589A822F0CC0992339F058982B
:1000D0008BB184278BB9832F91E003C05898599A2C
:1000E000832F5FEF63EC79E0515060407040E1F79F
:0A00F00000C00000CFCFF894FFCF4E
:00000001FF
