:100000000C9434000C9446000C9446000C9446006A
:100010000C9446000C9446000C9446000C94460048
:100020000C9446000C9446000C9446000C94460038
:100030000C9446000C9446000C9448000C94460026
:100040000C9446000C9446000C9446000C94460018
:100050000C9446000C9446000C9446000C94460008
:100060000C9446000C94460011241FBECFEFD8E03C
:10007000DEBFCDBF21E0A0E0B1E001C01D92A43001
:10008000B207E1F70E949D000C94C7000C94000099
:100090001F920F920FB60F9211248F939F93AF93DD
:1000A000BF938091000190910101A0910201B09154
:1000B00003010196A11DB11D8093000190930101E0
:1000C000A0930201B0930301BF91AF919F918F91D3
:1000D0000F900FBE0F901F9018950F931F930091D4
:1000E0000001109101012091020130910301AB0147
:1000F000BC01400F511F621F731F8091000190913E
:100100000101A0910201B0910301481759076A0744
:100110007B0799F71F910F910895AB01BC01809166
:10012000000190910101A0910201B0910301841797
:100130009507A607B70798F30895F8948FEF8AB943
:100140001BB882E084BD93E095BD99EF97BD809385
:100150006E0087E494EFAFEFBFEF809300019093C0
:100160000101A0930201B0930301789467E17CEF51
:100170008FEF9FEF0E948D00C1E08BB18C278BB970
:1001800060ED77E080E090E00E946D00F6CFF8949B
:02019000FFCF9F
:00000001FF
